{"abi":[{"type":"constructor","inputs":[],"stateMutability":"nonpayable"},{"type":"function","name":"CLOCK_MODE","inputs":[],"outputs":[{"name":"","type":"string","internalType":"string"}],"stateMutability":"pure"},{"type":"function","name":"DOMAIN_SEPARATOR","inputs":[],"outputs":[{"name":"","type":"bytes32","internalType":"bytes32"}],"stateMutability":"view"},{"type":"function","name":"allowance","inputs":[{"name":"owner","type":"address","internalType":"address"},{"name":"spender","type":"address","internalType":"address"}],"outputs":[{"name":"","type":"uint256","internalType":"uint256"}],"stateMutability":"view"},{"type":"function","name":"approve","inputs":[{"name":"spender","type":"address","internalType":"address"},{"name":"value","type":"uint256","internalType":"uint256"}],"outputs":[{"name":"","type":"bool","internalType":"bool"}],"stateMutability":"nonpayable"},{"type":"function","name":"balanceOf","inputs":[{"name":"account","type":"address","internalType":"address"}],"outputs":[{"name":"","type":"uint256","internalType":"uint256"}],"stateMutability":"view"},{"type":"function","name":"burn","inputs":[{"name":"value","type":"uint256","internalType":"uint256"}],"outputs":[],"stateMutability":"nonpayable"},{"type":"function","name":"burnFrom","inputs":[{"name":"account","type":"address","internalType":"address"},{"name":"value","type":"uint256","internalType":"uint256"}],"outputs":[],"stateMutability":"nonpayable"},{"type":"function","name":"checkpoints","inputs":[{"name":"account","type":"address","internalType":"address"},{"name":"pos","type":"uint32","internalType":"uint32"}],"outputs":[{"name":"","type":"tuple","internalType":"struct Checkpoints.Checkpoint208","components":[{"name":"_key","type":"uint48","internalType":"uint48"},{"name":"_value","type":"uint208","internalType":"uint208"}]}],"stateMutability":"view"},{"type":"function","name":"clock","inputs":[],"outputs":[{"name":"","type":"uint48","internalType":"uint48"}],"stateMutability":"view"},{"type":"function","name":"decimals","inputs":[],"outputs":[{"name":"","type":"uint8","internalType":"uint8"}],"stateMutability":"view"},{"type":"function","name":"delegate","inputs":[{"name":"delegatee","type":"address","internalType":"address"}],"outputs":[],"stateMutability":"nonpayable"},{"type":"function","name":"delegateBySig","inputs":[{"name":"delegatee","type":"address","internalType":"address"},{"name":"nonce","type":"uint256","internalType":"uint256"},{"name":"expiry","type":"uint256","internalType":"uint256"},{"name":"v","type":"uint8","internalType":"uint8"},{"name":"r","type":"bytes32","internalType":"bytes32"},{"name":"s","type":"bytes32","internalType":"bytes32"}],"outputs":[],"stateMutability":"nonpayable"},{"type":"function","name":"delegates","inputs":[{"name":"account","type":"address","internalType":"address"}],"outputs":[{"name":"","type":"address","internalType":"address"}],"stateMutability":"view"},{"type":"function","name":"eip712Domain","inputs":[],"outputs":[{"name":"fields","type":"bytes1","internalType":"bytes1"},{"name":"name","type":"string","internalType":"string"},{"name":"version","type":"string","internalType":"string"},{"name":"chainId","type":"uint256","internalType":"uint256"},{"name":"verifyingContract","type":"address","internalType":"address"},{"name":"salt","type":"bytes32","internalType":"bytes32"},{"name":"extensions","type":"uint256[]","internalType":"uint256[]"}],"stateMutability":"view"},{"type":"function","name":"getPastTotalSupply","inputs":[{"name":"timepoint","type":"uint256","internalType":"uint256"}],"outputs":[{"name":"","type":"uint256","internalType":"uint256"}],"stateMutability":"view"},{"type":"function","name":"getPastVotes","inputs":[{"name":"account","type":"address","internalType":"address"},{"name":"timepoint","type":"uint256","internalType":"uint256"}],"outputs":[{"name":"","type":"uint256","internalType":"uint256"}],"stateMutability":"view"},{"type":"function","name":"getVotes","inputs":[{"name":"account","type":"address","internalType":"address"}],"outputs":[{"name":"","type":"uint256","internalType":"uint256"}],"stateMutability":"view"},{"type":"function","name":"initialize","inputs":[{"name":"initialOwner","type":"address","internalType":"address"}],"outputs":[],"stateMutability":"nonpayable"},{"type":"function","name":"mint","inputs":[{"name":"to","type":"address","internalType":"address"},{"name":"amount","type":"uint256","internalType":"uint256"}],"outputs":[],"stateMutability":"nonpayable"},{"type":"function","name":"name","inputs":[],"outputs":[{"name":"","type":"string","internalType":"string"}],"stateMutability":"view"},{"type":"function","name":"nonces","inputs":[{"name":"owner","type":"address","internalType":"address"}],"outputs":[{"name":"","type":"uint256","internalType":"uint256"}],"stateMutability":"view"},{"type":"function","name":"numCheckpoints","inputs":[{"name":"account","type":"address","internalType":"address"}],"outputs":[{"name":"","type":"uint32","internalType":"uint32"}],"stateMutability":"view"},{"type":"function","name":"owner","inputs":[],"outputs":[{"name":"","type":"address","internalType":"address"}],"stateMutability":"view"},{"type":"function","name":"permit","inputs":[{"name":"owner","type":"address","internalType":"address"},{"name":"spender","type":"address","internalType":"address"},{"name":"value","type":"uint256","internalType":"uint256"},{"name":"deadline","type":"uint256","internalType":"uint256"},{"name":"v","type":"uint8","internalType":"uint8"},{"name":"r","type":"bytes32","internalType":"bytes32"},{"name":"s","type":"bytes32","internalType":"bytes32"}],"outputs":[],"stateMutability":"nonpayable"},{"type":"function","name":"renounceOwnership","inputs":[],"outputs":[],"stateMutability":"nonpayable"},{"type":"function","name":"symbol","inputs":[],"outputs":[{"name":"","type":"string","internalType":"string"}],"stateMutability":"view"},{"type":"function","name":"totalSupply","inputs":[],"outputs":[{"name":"","type":"uint256","internalType":"uint256"}],"stateMutability":"view"},{"type":"function","name":"transfer","inputs":[{"name":"to","type":"address","internalType":"address"},{"name":"value","type":"uint256","internalType":"uint256"}],"outputs":[{"name":"","type":"bool","internalType":"bool"}],"stateMutability":"nonpayable"},{"type":"function","name":"transferFrom","inputs":[{"name":"from","type":"address","internalType":"address"},{"name":"to","type":"address","internalType":"address"},{"name":"value","type":"uint256","internalType":"uint256"}],"outputs":[{"name":"","type":"bool","internalType":"bool"}],"stateMutability":"nonpayable"},{"type":"function","name":"transferOwnership","inputs":[{"name":"newOwner","type":"address","internalType":"address"}],"outputs":[],"stateMutability":"nonpayable"},{"type":"event","name":"Approval","inputs":[{"name":"owner","type":"address","indexed":true,"internalType":"address"},{"name":"spender","type":"address","indexed":true,"internalType":"address"},{"name":"value","type":"uint256","indexed":false,"internalType":"uint256"}],"anonymous":false},{"type":"event","name":"DelegateChanged","inputs":[{"name":"delegator","type":"address","indexed":true,"internalType":"address"},{"name":"fromDelegate","type":"address","indexed":true,"internalType":"address"},{"name":"toDelegate","type":"address","indexed":true,"internalType":"address"}],"anonymous":false},{"type":"event","name":"DelegateVotesChanged","inputs":[{"name":"delegate","type":"address","indexed":true,"internalType":"address"},{"name":"previousVotes","type":"uint256","indexed":false,"internalType":"uint256"},{"name":"newVotes","type":"uint256","indexed":false,"internalType":"uint256"}],"anonymous":false},{"type":"event","name":"EIP712DomainChanged","inputs":[],"anonymous":false},{"type":"event","name":"Initialized","inputs":[{"name":"version","type":"uint64","indexed":false,"internalType":"uint64"}],"anonymous":false},{"type":"event","name":"OwnershipTransferred","inputs":[{"name":"previousOwner","type":"address","indexed":true,"internalType":"address"},{"name":"newOwner","type":"address","indexed":true,"internalType":"address"}],"anonymous":false},{"type":"event","name":"Transfer","inputs":[{"name":"from","type":"address","indexed":true,"internalType":"address"},{"name":"to","type":"address","indexed":true,"internalType":"address"},{"name":"value","type":"uint256","indexed":false,"internalType":"uint256"}],"anonymous":false},{"type":"error","name":"CheckpointUnorderedInsertion","inputs":[]},{"type":"error","name":"ECDSAInvalidSignature","inputs":[]},{"type":"error","name":"ECDSAInvalidSignatureLength","inputs":[{"name":"length","type":"uint256","internalType":"uint256"}]},{"type":"error","name":"ECDSAInvalidSignatureS","inputs":[{"name":"s","type":"bytes32","internalType":"bytes32"}]},{"type":"error","name":"ERC20ExceededSafeSupply","inputs":[{"name":"increasedSupply","type":"uint256","internalType":"uint256"},{"name":"cap","type":"uint256","internalType":"uint256"}]},{"type":"error","name":"ERC20InsufficientAllowance","inputs":[{"name":"spender","type":"address","internalType":"address"},{"name":"allowance","type":"uint256","internalType":"uint256"},{"name":"needed","type":"uint256","internalType":"uint256"}]},{"type":"error","name":"ERC20InsufficientBalance","inputs":[{"name":"sender","type":"address","internalType":"address"},{"name":"balance","type":"uint256","internalType":"uint256"},{"name":"needed","type":"uint256","internalType":"uint256"}]},{"type":"error","name":"ERC20InvalidApprover","inputs":[{"name":"approver","type":"address","internalType":"address"}]},{"type":"error","name":"ERC20InvalidReceiver","inputs":[{"name":"receiver","type":"address","internalType":"address"}]},{"type":"error","name":"ERC20InvalidSender","inputs":[{"name":"sender","type":"address","internalType":"address"}]},{"type":"error","name":"ERC20InvalidSpender","inputs":[{"name":"spender","type":"address","internalType":"address"}]},{"type":"error","name":"ERC2612ExpiredSignature","inputs":[{"name":"deadline","type":"uint256","internalType":"uint256"}]},{"type":"error","name":"ERC2612InvalidSigner","inputs":[{"name":"signer","type":"address","internalType":"address"},{"name":"owner","type":"address","internalType":"address"}]},{"type":"error","name":"ERC5805FutureLookup","inputs":[{"name":"timepoint","type":"uint256","internalType":"uint256"},{"name":"clock","type":"uint48","internalType":"uint48"}]},{"type":"error","name":"ERC6372InconsistentClock","inputs":[]},{"type":"error","name":"InvalidAccountNonce","inputs":[{"name":"account","type":"address","internalType":"address"},{"name":"currentNonce","type":"uint256","internalType":"uint256"}]},{"type":"error","name":"InvalidInitialization","inputs":[]},{"type":"error","name":"NotInitializing","inputs":[]},{"type":"error","name":"OwnableInvalidOwner","inputs":[{"name":"owner","type":"address","internalType":"address"}]},{"type":"error","name":"OwnableUnauthorizedAccount","inputs":[{"name":"account","type":"address","internalType":"address"}]},{"type":"error","name":"SafeCastOverflowedUintDowncast","inputs":[{"name":"bits","type":"uint8","internalType":"uint8"},{"name":"value","type":"uint256","internalType":"uint256"}]},{"type":"error","name":"VotesExpiredSignature","inputs":[{"name":"expiry","type":"uint256","internalType":"uint256"}]}],"bytecode":{"object":"0x6080604052348015600f57600080fd5b506016601a565b60ca565b7ff0c57e16840df040f15088dc2f81fe391c3923bec73e23a9662efc9c229c6a00805468010000000000000000900460ff161560695760405163f92ee8a960e01b815260040160405180910390fd5b80546001600160401b039081161460c75780546001600160401b0319166001600160401b0390811782556040519081527fc7f505b2f371ae2175ee4913f4499e1f2633a7b5936321eed1cdaeb6115181d29060200160405180910390a15b50565b6125a2806100d96000396000f3fe608060405234801561001057600080fd5b50600436106101da5760003560e01c806379cc6790116101045780639ab24eb0116100a2578063d505accf11610071578063d505accf1461044f578063dd62ed3e14610462578063f1127ed814610475578063f2fde38b146104b457600080fd5b80639ab24eb014610403578063a9059cbb14610416578063c3cda52014610429578063c4d66de81461043c57600080fd5b80638da5cb5b116100de5780638da5cb5b146103a25780638e539e8c146103d257806391ddadf4146103e557806395d89b41146103fb57600080fd5b806379cc6790146103615780637ecebe001461037457806384b0196e1461038757600080fd5b806340c10f191161017c5780635c19a95c1161014b5780635c19a95c1461030b5780636fcfff451461031e57806370a0823114610346578063715018a61461035957600080fd5b806340c10f191461028e57806342966c68146102a35780634bf5d7e9146102b6578063587cde1e146102e057600080fd5b806323b872dd116101b857806323b872dd14610251578063313ce567146102645780633644e515146102735780633a46b1a81461027b57600080fd5b806306fdde03146101df578063095ea7b3146101fd57806318160ddd14610220575b600080fd5b6101e76104c7565b6040516101f4919061202f565b60405180910390f35b61021061020b36600461205e565b610570565b60405190151581526020016101f4565b7f52c63247e1f47db19d5ce0460030c497f067ca4cebf71ba98eeadabe20bace02545b6040519081526020016101f4565b61021061025f366004612088565b61058a565b604051601281526020016101f4565b6102436105ae565b61024361028936600461205e565b6105bd565b6102a161029c36600461205e565b61064b565b005b6102a16102b13660046120c5565b610661565b60408051808201909152600e81526d06d6f64653d74696d657374616d760941b60208201526101e7565b6102f36102ee3660046120de565b61066e565b6040516001600160a01b0390911681526020016101f4565b6102a16103193660046120de565b610699565b61033161032c3660046120de565b6106a4565b60405163ffffffff90911681526020016101f4565b6102436103543660046120de565b6106af565b6102a16106e2565b6102a161036f36600461205e565b6106f6565b6102436103823660046120de565b61070b565b61038f610716565b6040516101f497969594939291906120f9565b7f9016d09d72d40fdae2fd8ceac6b6234c7706214fd39c1cd1e609a0528c199300546001600160a01b03166102f3565b6102436103e03660046120c5565b6107c2565b60405165ffffffffffff421681526020016101f4565b6101e7610834565b6102436104113660046120de565b610873565b61021061042436600461205e565b6108d3565b6102a16104373660046121a2565b6108e1565b6102a161044a3660046120de565b61099e565b6102a161045d3660046121fa565b610b39565b610243610470366004612265565b610c55565b610488610483366004612298565b610c9f565b60408051825165ffffffffffff1681526020928301516001600160d01b031692810192909252016101f4565b6102a16104c23660046120de565b610cc4565b6060600060008051602061252d8339815191525b90508060030180546104ec906122d8565b80601f0160208091040260200160405190810160405280929190818152602001828054610518906122d8565b80156105655780601f1061053a57610100808354040283529160200191610565565b820191906000526020600020905b81548152906001019060200180831161054857829003601f168201915b505050505091505090565b60003361057e818585610cff565b60019150505b92915050565b600033610598858285610d11565b6105a3858585610d77565b506001949350505050565b60006105b8610dd6565b905090565b600060008051602061250d8339815191524265ffffffffffff8116841061060d57604051637669fc0f60e11b81526004810185905265ffffffffffff821660248201526044015b60405180910390fd5b61063961061985610de0565b6001600160a01b0387166000908152600185016020526040902090610e17565b6001600160d01b031695945050505050565b610653610ecd565b61065d8282610f28565b5050565b61066b3382610f5e565b50565b6001600160a01b03908116600090815260008051602061250d83398151915260205260409020541690565b3361065d8183610f94565b60006105848261101e565b60008060008051602061252d8339815191525b6001600160a01b0390931660009081526020939093525050604090205490565b6106ea610ecd565b6106f4600061106f565b565b610701823383610d11565b61065d8282610f5e565b6000610584826110e0565b6000606080828080838160008051602061254d833981519152805490915015801561074357506001810154155b6107875760405162461bcd60e51b81526020600482015260156024820152741152540dcc4c8e88155b9a5b9a5d1a585b1a5e9959605a1b6044820152606401610604565b61078f6110eb565b61079761112a565b60408051600080825260208201909252600f60f81b9c939b5091995046985030975095509350915050565b600060008051602061250d8339815191524265ffffffffffff8116841061080d57604051637669fc0f60e11b81526004810185905265ffffffffffff82166024820152604401610604565b61082361081985610de0565b6002840190610e17565b6001600160d01b0316949350505050565b7f52c63247e1f47db19d5ce0460030c497f067ca4cebf71ba98eeadabe20bace04805460609160008051602061252d833981519152916104ec906122d8565b6001600160a01b03811660009081527fe8b26c30fad74198956032a3533d903385d56dd795af560196f9c78d4af40d016020526040812060008051602061250d833981519152906108c390611142565b6001600160d01b03169392505050565b60003361057e818585610d77565b8342111561090557604051632341d78760e11b815260048101859052602401610604565b604080517fe48329057bfd03d55e49b547132e39cffd9c1820ad7b9d4c5307691425d15adf60208201526001600160a01b03881691810191909152606081018690526080810185905260009061097f906109779060a0016040516020818303038152906040528051906020012061117b565b8585856111a8565b905061098b81876111d6565b6109958188610f94565b50505050505050565b7ff0c57e16840df040f15088dc2f81fe391c3923bec73e23a9662efc9c229c6a008054600160401b810460ff16159067ffffffffffffffff166000811580156109e45750825b905060008267ffffffffffffffff166001148015610a015750303b155b905081158015610a0f575080155b15610a2d5760405163f92ee8a960e01b815260040160405180910390fd5b845467ffffffffffffffff191660011785558315610a5757845460ff60401b1916600160401b1785555b610aa36040518060400160405280600e81526020016d14dd185ad95908105c98881554d160921b81525060405180604001604052806004815260200163105554d160e21b815250611215565b610aab611227565b610ab48661122f565b610ae36040518060400160405280600e81526020016d14dd185ad95908105c98881554d160921b815250611240565b610aeb611227565b8315610b3157845460ff60401b19168555604051600181527fc7f505b2f371ae2175ee4913f4499e1f2633a7b5936321eed1cdaeb6115181d29060200160405180910390a15b505050505050565b83421115610b5d5760405163313c898160e11b815260048101859052602401610604565b60007f6e71edae12b1b97f4d1f60370fef10105fa2faae0126114a169c64845d6126c9888888610b8c8c61126b565b6040805160208101969096526001600160a01b0394851690860152929091166060840152608083015260a082015260c0810186905260e0016040516020818303038152906040528051906020012090506000610be78261117b565b90506000610bf7828787876111a8565b9050896001600160a01b0316816001600160a01b031614610c3e576040516325c0072360e11b81526001600160a01b0380831660048301528b166024820152604401610604565b610c498a8a8a610cff565b50505050505050505050565b6001600160a01b0391821660009081527f52c63247e1f47db19d5ce0460030c497f067ca4cebf71ba98eeadabe20bace016020908152604080832093909416825291909152205490565b6040805180820190915260008082526020820152610cbd83836112ad565b9392505050565b610ccc610ecd565b6001600160a01b038116610cf657604051631e4fbdf760e01b815260006004820152602401610604565b61066b8161106f565b610d0c8383836001611318565b505050565b6000610d1d8484610c55565b90506000198114610d715781811015610d6257604051637dc7a0d960e11b81526001600160a01b03841660048201526024810182905260448101839052606401610604565b610d7184848484036000611318565b50505050565b6001600160a01b038316610da157604051634b637e8f60e11b815260006004820152602401610604565b6001600160a01b038216610dcb5760405163ec442f0560e01b815260006004820152602401610604565b610d0c838383611400565b60006105b861140b565b600065ffffffffffff821115610e13576040516306dfcc6560e41b81526030600482015260248101839052604401610604565b5090565b815460009081816005811115610e76576000610e328461147f565b610e3c908561233e565b60008881526020902090915081015465ffffffffffff9081169087161015610e6657809150610e74565b610e71816001612351565b92505b505b6000610e84878785856115d3565b90508015610ebf57610ea987610e9b60018461233e565b600091825260209091200190565b54600160301b90046001600160d01b0316610ec2565b60005b979650505050505050565b33610eff7f9016d09d72d40fdae2fd8ceac6b6234c7706214fd39c1cd1e609a0528c199300546001600160a01b031690565b6001600160a01b0316146106f45760405163118cdaa760e01b8152336004820152602401610604565b6001600160a01b038216610f525760405163ec442f0560e01b815260006004820152602401610604565b61065d60008383611400565b6001600160a01b038216610f8857604051634b637e8f60e11b815260006004820152602401610604565b61065d82600083611400565b60008051602061250d8339815191526000610fae8461066e565b6001600160a01b0385811660008181526020869052604080822080546001600160a01b031916898616908117909155905194955093928516927f3134e8a2e6d97e929a7e54011ea5485d7d196dd5f0ba4d4ef95803e8e3fc257f9190a4610d71818461101987611635565b611640565b6001600160a01b03811660009081527fe8b26c30fad74198956032a3533d903385d56dd795af560196f9c78d4af40d01602052604081205460008051602061250d83398151915290610cbd906117ba565b7f9016d09d72d40fdae2fd8ceac6b6234c7706214fd39c1cd1e609a0528c19930080546001600160a01b031981166001600160a01b03848116918217845560405192169182907f8be0079c531659141344cd1fd0a4f28419497f9722a3daafe3b4186f6b6457e090600090a3505050565b6000610584826117eb565b7fa16a46d94261c7517cc8ff89f61c0ce93598e3c849801011dee649a6a557d102805460609160008051602061254d833981519152916104ec906122d8565b6060600060008051602061254d8339815191526104db565b805460009080156111725761115c83610e9b60018461233e565b54600160301b90046001600160d01b0316610cbd565b60009392505050565b6000610584611188610dd6565b8360405161190160f01b8152600281019290925260228201526042902090565b6000806000806111ba88888888611814565b9250925092506111ca82826118e3565b50909695505050505050565b60006111e18361126b565b9050808214610d0c576040516301d4b62360e61b81526001600160a01b038416600482015260248101829052604401610604565b61121d61199c565b61065d82826119e5565b6106f461199c565b61123761199c565b61066b81611a36565b61124861199c565b61066b81604051806040016040528060018152602001603160f81b815250611a3e565b6001600160a01b031660009081527f5ab42ced628888259c08ac98db1eb0cf702fc1501344311d8b100cd1bfe4bb006020526040902080546001810190915590565b604080518082018252600080825260208083018290526001600160a01b03861682527fe8b26c30fad74198956032a3533d903385d56dd795af560196f9c78d4af40d0190529190912060008051602061250d833981519152906113109084611a9f565b949350505050565b60008051602061252d8339815191526001600160a01b0385166113515760405163e602df0560e01b815260006004820152602401610604565b6001600160a01b03841661137b57604051634a1406b160e11b815260006004820152602401610604565b6001600160a01b038086166000908152600183016020908152604080832093881683529290522083905581156113f957836001600160a01b0316856001600160a01b03167f8c5be1e5ebec7d5bd14f71427d1e84f3dd0314c0f7b2291e5b200ac8c7c3b925856040516113f091815260200190565b60405180910390a35b5050505050565b610d0c838383611b0f565b60007f8b73c3c69bb8fe3d512ecc4cf759cc79239f7b179b0ffacaa9a75d522b39400f611436611b95565b61143e611bff565b60408051602081019490945283019190915260608201524660808201523060a082015260c00160405160208183030381529060405280519060200120905090565b60006001821161148d575090565b816001600160801b82106114a65760809190911c9060401b5b600160401b82106114bc5760409190911c9060201b5b64010000000082106114d35760209190911c9060101b5b6201000082106114e85760109190911c9060081b5b61010082106114fc5760089190911c9060041b5b6010821061150f5760049190911c9060021b5b6004821061151b5760011b5b600302600190811c9081858161153357611533612364565b048201901c9050600181858161154b5761154b612364565b048201901c9050600181858161156357611563612364565b048201901c9050600181858161157b5761157b612364565b048201901c9050600181858161159357611593612364565b048201901c905060018185816115ab576115ab612364565b048201901c90506115ca8185816115c4576115c4612364565b04821190565b90039392505050565b60005b8183101561162d5760006115ea8484611c43565b60008781526020902090915065ffffffffffff86169082015465ffffffffffff16111561161957809250611627565b611624816001612351565b93505b506115d6565b509392505050565b6000610584826106af565b60008051602061250d8339815191526001600160a01b038481169084161480159061166b5750600082115b15610d71576001600160a01b03841615611715576001600160a01b0384166000908152600182016020526040812081906116b090611c5e6116ab87611c6a565b611c9e565b6001600160d01b031691506001600160d01b03169150856001600160a01b03167fdec2bacdd2f05b59de34da9b523dff8be42e5e38e818c82fdb0bae774387a724838360405161170a929190918252602082015260400190565b60405180910390a250505b6001600160a01b03831615610d71576001600160a01b03831660009081526001820160205260408120819061175090611cd06116ab87611c6a565b6001600160d01b031691506001600160d01b03169150846001600160a01b03167fdec2bacdd2f05b59de34da9b523dff8be42e5e38e818c82fdb0bae774387a72483836040516117aa929190918252602082015260400190565b60405180910390a2505050505050565b600063ffffffff821115610e13576040516306dfcc6560e41b81526020600482015260248101839052604401610604565b6000807f5ab42ced628888259c08ac98db1eb0cf702fc1501344311d8b100cd1bfe4bb006106c2565b600080807f7fffffffffffffffffffffffffffffff5d576e7357a4501ddfe92f46681b20a084111561184f57506000915060039050826118d9565b604080516000808252602082018084528a905260ff891692820192909252606081018790526080810186905260019060a0016020604051602081039080840390855afa1580156118a3573d6000803e3d6000fd5b5050604051601f1901519150506001600160a01b0381166118cf575060009250600191508290506118d9565b9250600091508190505b9450945094915050565b60008260038111156118f7576118f761237a565b03611900575050565b60018260038111156119145761191461237a565b036119325760405163f645eedf60e01b815260040160405180910390fd5b60028260038111156119465761194661237a565b036119675760405163fce698f760e01b815260048101829052602401610604565b600382600381111561197b5761197b61237a565b0361065d576040516335e2f38360e21b815260048101829052602401610604565b7ff0c57e16840df040f15088dc2f81fe391c3923bec73e23a9662efc9c229c6a0054600160401b900460ff166106f457604051631afcd79f60e31b815260040160405180910390fd5b6119ed61199c565b60008051602061252d8339815191527f52c63247e1f47db19d5ce0460030c497f067ca4cebf71ba98eeadabe20bace03611a2784826123d7565b5060048101610d7183826123d7565b610ccc61199c565b611a4661199c565b60008051602061254d8339815191527fa16a46d94261c7517cc8ff89f61c0ce93598e3c849801011dee649a6a557d102611a8084826123d7565b5060038101611a8f83826123d7565b5060008082556001909101555050565b6040805180820190915260008082526020820152826000018263ffffffff1681548110611ace57611ace612496565b60009182526020918290206040805180820190915291015465ffffffffffff81168252600160301b90046001600160d01b0316918101919091529392505050565b611b1a838383611cdc565b6001600160a01b038316611b8a576000611b527f52c63247e1f47db19d5ce0460030c497f067ca4cebf71ba98eeadabe20bace025490565b90506001600160d01b0380821115611b8757604051630e58ae9360e11b81526004810183905260248101829052604401610604565b50505b610d0c838383611e1a565b600060008051602061254d83398151915281611baf6110eb565b805190915015611bc757805160209091012092915050565b81548015611bd6579392505050565b7fc5d2460186f7233c927e7db2dcc703c0e500b653ca82273b7bfad8045d85a470935050505090565b600060008051602061254d83398151915281611c1961112a565b805190915015611c3157805160209091012092915050565b60018201548015611bd6579392505050565b6000611c5260028484186124ac565b610cbd90848416612351565b6000610cbd82846124ce565b60006001600160d01b03821115610e13576040516306dfcc6560e41b815260d0600482015260248101839052604401610604565b600080611cc342611cbb611cb188611142565b868863ffffffff16565b879190611e8c565b915091505b935093915050565b6000610cbd82846124ed565b60008051602061252d8339815191526001600160a01b038416611d185781816002016000828254611d0d9190612351565b90915550611d8a9050565b6001600160a01b03841660009081526020829052604090205482811015611d6b5760405163391434e360e21b81526001600160a01b03861660048201526024810182905260448101849052606401610604565b6001600160a01b03851660009081526020839052604090209083900390555b6001600160a01b038316611da8576002810180548390039055611dc7565b6001600160a01b03831660009081526020829052604090208054830190555b826001600160a01b0316846001600160a01b03167fddf252ad1be2c89b69c2b068fc378daa952ba7f163c4a11628f55a4df523b3ef84604051611e0c91815260200190565b60405180910390a350505050565b60008051602061250d8339815191526001600160a01b038416611e4d57611e4a81600201611cd06116ab85611c6a565b50505b6001600160a01b038316611e7157611e6e81600201611c5e6116ab85611c6a565b50505b610d71611e7d8561066e565b611e868561066e565b84611640565b600080611cc3858585825460009081908015611f8e576000611eb387610e9b60018561233e565b805490915065ffffffffffff80821691600160301b90046001600160d01b0316908816821115611ef657604051632520601d60e01b815260040160405180910390fd5b8765ffffffffffff168265ffffffffffff1603611f2f57825465ffffffffffff16600160301b6001600160d01b03891602178355611f80565b6040805180820190915265ffffffffffff808a1682526001600160d01b03808a1660208085019182528d54600181018f5560008f81529190912094519151909216600160301b029216919091179101555b9450859350611cc892505050565b50506040805180820190915265ffffffffffff80851682526001600160d01b0380851660208085019182528854600181018a5560008a815291822095519251909316600160301b029190931617920191909155905081611cc8565b6000815180845260005b8181101561200f57602081850181015186830182015201611ff3565b506000602082860101526020601f19601f83011685010191505092915050565b602081526000610cbd6020830184611fe9565b80356001600160a01b038116811461205957600080fd5b919050565b6000806040838503121561207157600080fd5b61207a83612042565b946020939093013593505050565b60008060006060848603121561209d57600080fd5b6120a684612042565b92506120b460208501612042565b929592945050506040919091013590565b6000602082840312156120d757600080fd5b5035919050565b6000602082840312156120f057600080fd5b610cbd82612042565b60ff60f81b8816815260e06020820152600061211860e0830189611fe9565b828103604084015261212a8189611fe9565b606084018890526001600160a01b038716608085015260a0840186905283810360c08501528451808252602080870193509091019060005b81811015612180578351835260209384019390920191600101612162565b50909b9a5050505050505050505050565b803560ff8116811461205957600080fd5b60008060008060008060c087890312156121bb57600080fd5b6121c487612042565b955060208701359450604087013593506121e060608801612191565b9598949750929560808101359460a0909101359350915050565b600080600080600080600060e0888a03121561221557600080fd5b61221e88612042565b965061222c60208901612042565b9550604088013594506060880135935061224860808901612191565b9699959850939692959460a0840135945060c09093013592915050565b6000806040838503121561227857600080fd5b61228183612042565b915061228f60208401612042565b90509250929050565b600080604083850312156122ab57600080fd5b6122b483612042565b9150602083013563ffffffff811681146122cd57600080fd5b809150509250929050565b600181811c908216806122ec57607f821691505b60208210810361230c57634e487b7160e01b600052602260045260246000fd5b50919050565b634e487b7160e01b600052604160045260246000fd5b634e487b7160e01b600052601160045260246000fd5b8181038181111561058457610584612328565b8082018082111561058457610584612328565b634e487b7160e01b600052601260045260246000fd5b634e487b7160e01b600052602160045260246000fd5b601f821115610d0c57806000526020600020601f840160051c810160208510156123b75750805b601f840160051c820191505b818110156113f957600081556001016123c3565b815167ffffffffffffffff8111156123f1576123f1612312565b612405816123ff84546122d8565b84612390565b6020601f82116001811461243957600083156124215750848201515b600019600385901b1c1916600184901b1784556113f9565b600084815260208120601f198516915b828110156124695787850151825560209485019460019092019101612449565b50848210156124875786840151600019600387901b60f8161c191681555b50505050600190811b01905550565b634e487b7160e01b600052603260045260246000fd5b6000826124c957634e487b7160e01b600052601260045260246000fd5b500490565b6001600160d01b03828116828216039081111561058457610584612328565b6001600160d01b0381811683821601908111156105845761058461232856fee8b26c30fad74198956032a3533d903385d56dd795af560196f9c78d4af40d0052c63247e1f47db19d5ce0460030c497f067ca4cebf71ba98eeadabe20bace00a16a46d94261c7517cc8ff89f61c0ce93598e3c849801011dee649a6a557d100a2646970667358221220e8404df44f086b24f9436e4432677ddff9181a31c42b0356e11814db5fad2ad964736f6c634300081a0033","linkReferences":{}},"methodIdentifiers":{"CLOCK_MODE()":"4bf5d7e9","DOMAIN_SEPARATOR()":"3644e515","allowance(address,address)":"dd62ed3e","approve(address,uint256)":"095ea7b3","balanceOf(address)":"70a08231","burn(uint256)":"42966c68","burnFrom(address,uint256)":"79cc6790","checkpoints(address,uint32)":"f1127ed8","clock()":"91ddadf4","decimals()":"313ce567","delegate(address)":"5c19a95c","delegateBySig(address,uint256,uint256,uint8,bytes32,bytes32)":"c3cda520","delegates(address)":"587cde1e","eip712Domain()":"84b0196e","getPastTotalSupply(uint256)":"8e539e8c","getPastVotes(address,uint256)":"3a46b1a8","getVotes(address)":"9ab24eb0","initialize(address)":"c4d66de8","mint(address,uint256)":"40c10f19","name()":"06fdde03","nonces(address)":"7ecebe00","numCheckpoints(address)":"6fcfff45","owner()":"8da5cb5b","permit(address,address,uint256,uint256,uint8,bytes32,bytes32)":"d505accf","renounceOwnership()":"715018a6","symbol()":"95d89b41","totalSupply()":"18160ddd","transfer(address,uint256)":"a9059cbb","transferFrom(address,address,uint256)":"23b872dd","transferOwnership(address)":"f2fde38b"},"id":27}